{
  "_format": "hh-sol-artifact-1",
  "contractName": "MyFirstContract",
  "sourceName": "contracts/MyFirstContract.sol",
  "abi": [
    {
      "inputs": [],
      "name": "greetings",
      "outputs": [
        {
          "internalType": "string",
          "name": "",
          "type": "string"
        }
      ],
      "stateMutability": "view",
      "type": "function"
    },
    {
      "inputs": [
        {
          "internalType": "address",
          "name": "_receiver",
          "type": "address"
        },
        {
          "internalType": "uint256",
          "name": "amount",
          "type": "uint256"
        }
      ],
      "name": "transfer",
      "outputs": [],
      "stateMutability": "payable",
      "type": "function"
    },
    {
      "inputs": [
        {
          "internalType": "string",
          "name": "_greetings",
          "type": "string"
        }
      ],
      "name": "updateGreeting",
      "outputs": [
        {
          "internalType": "string",
          "name": "",
          "type": "string"
        }
      ],
      "stateMutability": "nonpayable",
      "type": "function"
    }
  ],
  "bytecode": "0x6080806040523460bf57600054600181811c9116801560b6575b602082101460a057601f8111605a575b507f48656c6c6f20536f6c696469747900000000000000000000000000000000001c6000556104c390816100c58239f35b60008052601f0160051c7f290decd9548b62a8d60345a988386fc84ba6bc95484008f6362f93160ef3e563908101905b818110609557506029565b60008155600101608a565b634e487b7160e01b600052602260045260246000fd5b90607f16906019565b600080fdfe6080604052600436101561001257600080fd5b60003560e01c80632867cc4414610141578063a9059cbb1461006e5763acb34ce81461003d57600080fd5b34610069576000366003190112610069576100656100596103c8565b60405191829182610345565b0390f35b600080fd5b6040366003190112610069576004356001600160a01b038116810361006957602435908134111561010e57600080809381935af13d15610109573d6100b281610329565b906100c06040519283610307565b8152600060203d92013e5b156100d257005b60405162461bcd60e51b815260206004820152600f60248201526e151c985b9cd9995c8819985a5b1959608a1b6044820152606490fd5b6100cb565b60405162461bcd60e51b815260206004820152600b60248201526a4e6f7420456e6f7567682160a81b6044820152606490fd5b346100695760203660031901126100695760043567ffffffffffffffff8111610069573660238201121561006957806004013561017d81610329565b9161018b6040519384610307565b818352366024838301011161006957816000926024602093018386013783010152805167ffffffffffffffff81116102f1576101c860005461038e565b601f8111610285575b50602091601f82116001146102175791819260009261020c575b50508160011b916000199060031b1c1916176000555b6100656100596103c8565b0151905082806101eb565b601f198216926000805260008051602061046e8339815191529160005b85811061026d57508360019510610254575b505050811b01600055610201565b015160001960f88460031b161c19169055828080610246565b91926020600181928685015181550194019201610234565b60008052601f820160051c60008051602061046e8339815191520190602083106102db575b601f0160051c60008051602061046e83398151915201905b8181106102cf57506101d1565b600081556001016102c2565b60008051602061046e83398151915291506102aa565b634e487b7160e01b600052604160045260246000fd5b90601f8019910116810190811067ffffffffffffffff8211176102f157604052565b67ffffffffffffffff81116102f157601f01601f191660200190565b91909160208152825180602083015260005b818110610378575060409293506000838284010152601f8019910116010190565b8060208092870101516040828601015201610357565b90600182811c921680156103be575b60208310146103a857565b634e487b7160e01b600052602260045260246000fd5b91607f169161039d565b60405190600082600054916103dc8361038e565b808352926001811690811561044e5750600114610402575b61040092500383610307565b565b506000808052909160008051602061046e8339815191525b818310610432575050906020610400928201016103f4565b602091935080600191548385890101520191019091849261041a565b6020925061040094915060ff191682840152151560051b8201016103f456fe290decd9548b62a8d60345a988386fc84ba6bc95484008f6362f93160ef3e563a26469706673582212209fe5ab72f858557a90a4dcdb9e2d4f7953eb7dcb452c9163b2050c95cd553a8c64736f6c634300081c0033",
  "linkReferences": {},
  "deployedLinkReferences": {}
}